{"abi":[{"type":"constructor","inputs":[],"stateMutability":"nonpayable"},{"type":"fallback","stateMutability":"payable"},{"type":"receive","stateMutability":"payable"},{"type":"function","name":"createNewReward","inputs":[{"name":"_rewardLimit","type":"uint64","internalType":"uint64"},{"name":"_uintAmount","type":"uint256","internalType":"uint256"},{"name":"_startTime","type":"uint256","internalType":"uint256"},{"name":"_endTime","type":"uint256","internalType":"uint256"}],"outputs":[{"name":"","type":"address","internalType":"contract Reward"}],"stateMutability":"payable"},{"type":"function","name":"owner","inputs":[],"outputs":[{"name":"","type":"address","internalType":"address"}],"stateMutability":"view"},{"type":"function","name":"s_contractsOfUsers","inputs":[{"name":"","type":"address","internalType":"address"},{"name":"","type":"uint256","internalType":"uint256"}],"outputs":[{"name":"","type":"address","internalType":"address"}],"stateMutability":"view"},{"type":"function","name":"s_userContractCounts","inputs":[{"name":"","type":"address","internalType":"address"}],"outputs":[{"name":"","type":"uint256","internalType":"uint256"}],"stateMutability":"view"},{"type":"function","name":"userContractCount","inputs":[{"name":"creator","type":"address","internalType":"address"}],"outputs":[{"name":"","type":"uint256","internalType":"uint256"}],"stateMutability":"view"},{"type":"function","name":"userContracts","inputs":[{"name":"creator","type":"address","internalType":"address"},{"name":"count","type":"uint256","internalType":"uint256"}],"outputs":[{"name":"","type":"address","internalType":"address"}],"stateMutability":"view"},{"type":"function","name":"withdraw","inputs":[],"outputs":[],"stateMutability":"payable"},{"type":"event","name":"CreateRewardSuccess","inputs":[{"name":"creator","type":"address","indexed":true,"internalType":"address"},{"name":"rewardLimit","type":"uint256","indexed":false,"internalType":"uint256"},{"name":"initialBalance","type":"uint256","indexed":false,"internalType":"uint256"}],"anonymous":false},{"type":"event","name":"WithdrawSuccess","inputs":[{"name":"from","type":"address","indexed":true,"internalType":"address"},{"name":"to","type":"address","indexed":true,"internalType":"address"},{"name":"amount","type":"uint256","indexed":false,"internalType":"uint256"}],"anonymous":false},{"type":"error","name":"BalanceIsNotEnough","inputs":[]},{"type":"error","name":"NotTheOwner","inputs":[]},{"type":"error","name":"PayForCreationFail","inputs":[]},{"type":"error","name":"WithdrawFail","inputs":[]}],"bytecode":{"object":"0x6080604052348015600f57600080fd5b50600080546001600160a01b03191633179055610aa5806100316000396000f3fe60806040526004361061006e5760003560e01c8063d65a822d1161004b578063d65a822d146100dc578063eacfd74d146100ef578063f6d7a53914610133578063fac6acea1461017457005b80633ccfd60b146100775780638da5cb5b1461007f578063b789003d146100bc57005b3661007557005b005b6100756101a1565b34801561008b57600080fd5b5060005461009f906001600160a01b031681565b6040516001600160a01b0390911681526020015b60405180910390f35b3480156100c857600080fd5b5061009f6100d73660046104a7565b610288565b61009f6100ea3660046104d1565b6102b5565b3480156100fb57600080fd5b5061012561010a366004610519565b6001600160a01b031660009081526002602052604090205490565b6040519081526020016100b3565b34801561013f57600080fd5b5061009f61014e3660046104a7565b60016020908152600092835260408084209091529082529020546001600160a01b031681565b34801561018057600080fd5b5061012561018f366004610519565b60026020526000908152604090205481565b6000546001600160a01b031633146101cc576040516336b6b89560e01b815260040160405180910390fd5b600080546040514792916001600160a01b03169083908381818185875af1925050503d806000811461021a576040519150601f19603f3d011682016040523d82523d6000602084013e61021f565b606091505b50509050806102405760405162c0f29960e01b815260040160405180910390fd5b6000546040518381526001600160a01b039091169030907f13f6fde85ff279c84605d36a9e826fa288b03b0fe2c8df3be542eb045ace04839060200160405180910390a35050565b6001600160a01b038083166000908152600160209081526040808320858452909152902054165b92915050565b6000333167016345785d8a00008110156102e25760405163c6cf63c160e01b815260040160405180910390fd5b604051600090309067016345785d8a0000908381818185875af1925050503d806000811461032c576040519150601f19603f3d011682016040523d82523d6000602084013e610331565b606091505b50509050806103535760405163f69effbf60e01b815260040160405180910390fd5b33600061036867016345785d8a000034610551565b898989896040516103789061047e565b67ffffffffffffffff90941684526020840192909252604083015260608201526080016040518091039082f09050801580156103b8573d6000803e3d6000fd5b506001600160a01b038316600090815260026020526040812080549293506001929091906103e7908490610564565b90915550506001600160a01b0382811660009081526001602090815260408083206002835281842054845282529182902080546001600160a01b03191693851693909317909255805167ffffffffffffffff8c1681523492810192909252805133927f8b4268117f6d46a3af3b6af008ba28b388a5b50ce9279f65559f6170136a8cd592908290030190a298975050505050505050565b6104f88061057883390190565b80356001600160a01b03811681146104a257600080fd5b919050565b600080604083850312156104ba57600080fd5b6104c38361048b565b946020939093013593505050565b600080600080608085870312156104e757600080fd5b843567ffffffffffffffff811681146104ff57600080fd5b966020860135965060408601359560600135945092505050565b60006020828403121561052b57600080fd5b6105348261048b565b9392505050565b634e487b7160e01b600052601160045260246000fd5b818103818111156102af576102af61053b565b808201808211156102af576102af61053b56fe60806040526040516104f83803806104f88339810160408190526020916064565b600080546001600160a01b03191633179055600280546001600160401b039095166001600160401b03199095169490941790935560039190915560045560055560ad565b60008060008060808587031215607957600080fd5b84516001600160401b0381168114608f57600080fd5b60208601516040870151606090970151919890975090945092505050565b61043c806100bc6000396000f3fe60806040526004361061007b5760003560e01c8063ddcfe49e1161004e578063ddcfe49e14610125578063e39782401461013b578063e54a51a614610173578063f80820c91461018957600080fd5b806323cbcef21461008057806346847316146100cb578063996501e3146100ef5780639dabff2514610110575b600080fd5b34801561008c57600080fd5b506002546100ad9068010000000000000000900467ffffffffffffffff1681565b60405167ffffffffffffffff90911681526020015b60405180910390f35b3480156100d757600080fd5b506100e160055481565b6040519081526020016100c2565b3480156100fb57600080fd5b506002546100ad9067ffffffffffffffff1681565b61012361011e3660046103ae565b6101c9565b005b34801561013157600080fd5b506100e160035481565b34801561014757600080fd5b5060005461015b906001600160a01b031681565b6040516001600160a01b0390911681526020016100c2565b34801561017f57600080fd5b506100e160045481565b34801561019557600080fd5b506101b96101a43660046103ae565b60016020526000908152604090205460ff1681565b60405190151581526020016100c2565b6000546001600160a01b031633146101f4576040516365b023fd60e01b815260040160405180910390fd5b6003544710156102175760405163c6cf63c160e01b815260040160405180910390fd5b6001600160a01b03811660009081526001602052604090205460ff161561025157604051630affae9960e21b815260040160405180910390fd5b6003546040516000916001600160a01b038416918381818185875af1925050503d806000811461029d576040519150601f19603f3d011682016040523d82523d6000602084013e6102a2565b606091505b50509050806102e4576003546040516317e3057d60e31b81523060048201526001600160a01b0384166024820152604481019190915260640160405180910390fd5b6001600260088282829054906101000a900467ffffffffffffffff1661030a91906103d2565b825467ffffffffffffffff9182166101009390930a9283029190920219909116179055506001600160a01b038216600081815260016020819052604091829020805460ff19169091179055600354905130917ff74bcc3793317c525d5358dfc6271a625b4f60b5177c219b44252f5bd53be5a69161038a91815260200190565b60405180910390a35050565b6001600160a01b03811681146103ab57600080fd5b50565b6000602082840312156103c057600080fd5b81356103cb81610396565b9392505050565b67ffffffffffffffff818116838216019081111561040057634e487b7160e01b600052601160045260246000fd5b9291505056fea264697066735822122086bfffd9258b83b4b4e19200808ea9ecf132d47f49ce493575fb3055c4763b7e64736f6c634300081a0033a264697066735822122012cf1fe4d17b283be31f709d3c84763bf6e6fc9961d6d529cc4d55cd4f4f322564736f6c634300081a0033","linkReferences":{}},"methodIdentifiers":{"createNewReward(uint64,uint256,uint256,uint256)":"d65a822d","owner()":"8da5cb5b","s_contractsOfUsers(address,uint256)":"f6d7a539","s_userContractCounts(address)":"fac6acea","userContractCount(address)":"eacfd74d","userContracts(address,uint256)":"b789003d","withdraw()":"3ccfd60b"},"id":26}