{"abi":[{"type":"constructor","inputs":[],"stateMutability":"nonpayable"},{"type":"fallback","stateMutability":"payable"},{"type":"receive","stateMutability":"payable"},{"type":"function","name":"createNewReward","inputs":[{"name":"_rewardLimit","type":"uint64","internalType":"uint64"},{"name":"_uintAmount","type":"uint256","internalType":"uint256"},{"name":"_startTime","type":"uint256","internalType":"uint256"},{"name":"_endTime","type":"uint256","internalType":"uint256"},{"name":"creationPrice","type":"uint256","internalType":"uint256"}],"outputs":[{"name":"","type":"address","internalType":"contract Reward"}],"stateMutability":"payable"},{"type":"function","name":"owner","inputs":[],"outputs":[{"name":"","type":"address","internalType":"address"}],"stateMutability":"view"},{"type":"function","name":"s_contractsOfUsers","inputs":[{"name":"","type":"address","internalType":"address"},{"name":"","type":"uint256","internalType":"uint256"}],"outputs":[{"name":"","type":"address","internalType":"address"}],"stateMutability":"view"},{"type":"function","name":"s_userContractCounts","inputs":[{"name":"","type":"address","internalType":"address"}],"outputs":[{"name":"","type":"uint256","internalType":"uint256"}],"stateMutability":"view"},{"type":"function","name":"userContractCount","inputs":[{"name":"creator","type":"address","internalType":"address"}],"outputs":[{"name":"","type":"uint256","internalType":"uint256"}],"stateMutability":"view"},{"type":"function","name":"userContracts","inputs":[{"name":"creator","type":"address","internalType":"address"},{"name":"count","type":"uint256","internalType":"uint256"}],"outputs":[{"name":"","type":"address","internalType":"address"}],"stateMutability":"view"},{"type":"event","name":"CreateRewardSuccess","inputs":[{"name":"creator","type":"address","indexed":true,"internalType":"address"},{"name":"reward_address","type":"address","indexed":true,"internalType":"address"},{"name":"rewardLimit","type":"uint256","indexed":false,"internalType":"uint256"},{"name":"initialBalance","type":"uint256","indexed":false,"internalType":"uint256"}],"anonymous":false},{"type":"error","name":"BalanceIsNotEnough","inputs":[]},{"type":"error","name":"NotTheOwner","inputs":[]},{"type":"error","name":"PayForCreationFail","inputs":[]},{"type":"error","name":"WithdrawFail","inputs":[]}],"bytecode":{"object":"0x6080604052348015600f57600080fd5b50600080546001600160a01b03191633179055610af1806100316000396000f3fe6080604052600436106100565760003560e01c80638da5cb5b1461005f578063b789003d1461009c578063c7a04970146100bc578063eacfd74d146100cf578063f6d7a53914610113578063fac6acea1461015457005b3661005d57005b005b34801561006b57600080fd5b5060005461007f906001600160a01b031681565b6040516001600160a01b0390911681526020015b60405180910390f35b3480156100a857600080fd5b5061007f6100b736600461039e565b610181565b61007f6100ca3660046103c8565b6101ae565b3480156100db57600080fd5b506101056100ea366004610419565b6001600160a01b031660009081526002602052604090205490565b604051908152602001610093565b34801561011f57600080fd5b5061007f61012e36600461039e565b60016020908152600092835260408084209091529082529020546001600160a01b031681565b34801561016057600080fd5b5061010561016f366004610419565b60026020526000908152604090205481565b6001600160a01b038083166000908152600160209081526040808320858452909152902054165b92915050565b6000806101c58667ffffffffffffffff8916610451565b90503331818110156101ea5760405163c6cf63c160e01b815260040160405180910390fd5b604051600090309086908381818185875af1925050503d806000811461022c576040519150601f19603f3d011682016040523d82523d6000602084013e610231565b606091505b50509050806102535760405163f69effbf60e01b815260040160405180910390fd5b3360006102608734610468565b8b8b8b8b60405161027090610375565b67ffffffffffffffff90941684526020840192909252604083015260608201526080016040518091039082f09050801580156102b0573d6000803e3d6000fd5b506001600160a01b038316600090815260026020526040812080549293506001929091906102df90849061047b565b90915550506001600160a01b0382811660009081526001602090815260408083206002835281842054845282529182902080546001600160a01b0319169385169384179055815167ffffffffffffffff8f1681523491810191909152815133927f47ed57bfaeeb2c5c6b0d4f139a73e362e90217ebef4193f18d65ca6944d131a7928290030190a39a9950505050505050505050565b61062d8061048f83390190565b80356001600160a01b038116811461039957600080fd5b919050565b600080604083850312156103b157600080fd5b6103ba83610382565b946020939093013593505050565b600080600080600060a086880312156103e057600080fd5b853567ffffffffffffffff811681146103f857600080fd5b97602087013597506040870135966060810135965060800135945092505050565b60006020828403121561042b57600080fd5b61043482610382565b9392505050565b634e487b7160e01b600052601160045260246000fd5b80820281158282048414176101a8576101a861043b565b818103818111156101a8576101a861043b565b808201808211156101a8576101a861043b56fe608060405260405161062d38038061062d8339810160408190526020916064565b600080546001600160a01b03191633179055600280546001600160401b039095166001600160401b03199095169490941790935560039190915560045560055560ad565b60008060008060808587031215607957600080fd5b84516001600160401b0381168114608f57600080fd5b60208601516040870151606090970151919890975090945092505050565b610571806100bc6000396000f3fe6080604052600436106100845760003560e01c80639dabff25116100565780639dabff2514610125578063ddcfe49e14610138578063e39782401461014e578063e54a51a614610186578063f80820c91461019c57005b806323cbcef21461008d5780633ccfd60b146100d857806346847316146100e0578063996501e31461010457005b3661008b57005b005b34801561009957600080fd5b506002546100ba9068010000000000000000900467ffffffffffffffff1681565b60405167ffffffffffffffff90911681526020015b60405180910390f35b61008b6101dc565b3480156100ec57600080fd5b506100f660055481565b6040519081526020016100cf565b34801561011057600080fd5b506002546100ba9067ffffffffffffffff1681565b61008b6101333660046104e3565b6102c4565b34801561014457600080fd5b506100f660035481565b34801561015a57600080fd5b5060005461016e906001600160a01b031681565b6040516001600160a01b0390911681526020016100cf565b34801561019257600080fd5b506100f660045481565b3480156101a857600080fd5b506101cc6101b73660046104e3565b60016020526000908152604090205460ff1681565b60405190151581526020016100cf565b6000546001600160a01b03163314610207576040516365b023fd60e01b815260040160405180910390fd5b600080546040514792916001600160a01b03169083908381818185875af1925050503d8060008114610255576040519150601f19603f3d011682016040523d82523d6000602084013e61025a565b606091505b505090508061027b5760405162c0f29960e01b815260040160405180910390fd5b6000546040518381526001600160a01b039091169030907f13f6fde85ff279c84605d36a9e826fa288b03b0fe2c8df3be542eb045ace0483906020015b60405180910390a35050565b6000546001600160a01b031633146102ef576040516365b023fd60e01b815260040160405180910390fd5b6003544710156103125760405163c6cf63c160e01b815260040160405180910390fd5b6004544210156103355760405163721df28160e11b815260040160405180910390fd5b60055442111561035857604051635dc1f13360e11b815260040160405180910390fd5b6001600160a01b03811660009081526001602052604090205460ff161561039257604051630affae9960e21b815260040160405180910390fd5b6003546040516000916001600160a01b038416918381818185875af1925050503d80600081146103de576040519150601f19603f3d011682016040523d82523d6000602084013e6103e3565b606091505b5050905080610425576003546040516317e3057d60e31b81523060048201526001600160a01b0384166024820152604481019190915260640160405180910390fd5b6001600260088282829054906101000a900467ffffffffffffffff1661044b9190610507565b825467ffffffffffffffff9182166101009390930a9283029190920219909116179055506001600160a01b038216600081815260016020819052604091829020805460ff19169091179055600354905130917ff74bcc3793317c525d5358dfc6271a625b4f60b5177c219b44252f5bd53be5a6916102b891815260200190565b6001600160a01b03811681146104e057600080fd5b50565b6000602082840312156104f557600080fd5b8135610500816104cb565b9392505050565b67ffffffffffffffff818116838216019081111561053557634e487b7160e01b600052601160045260246000fd5b9291505056fea2646970667358221220a0193753a1c80fb599ea62db36972361d20f90ae7ae1682e45116745575a0d1c64736f6c634300081a0033a26469706673582212205886fd69d189182e5b87b18e08d7a6d1de804f6e69d925dbe75ab69e7eddd76464736f6c634300081a0033","linkReferences":{}},"methodIdentifiers":{"createNewReward(uint64,uint256,uint256,uint256,uint256)":"c7a04970","owner()":"8da5cb5b","s_contractsOfUsers(address,uint256)":"f6d7a539","s_userContractCounts(address)":"fac6acea","userContractCount(address)":"eacfd74d","userContracts(address,uint256)":"b789003d"},"id":21}