{"abi":[{"type":"constructor","inputs":[{"name":"_rewardLimit","type":"uint64","internalType":"uint64"},{"name":"_uintAmount","type":"uint256","internalType":"uint256"},{"name":"_startTime","type":"uint256","internalType":"uint256"},{"name":"_endTime","type":"uint256","internalType":"uint256"}],"stateMutability":"payable"},{"type":"function","name":"s_currentRewardCount","inputs":[],"outputs":[{"name":"","type":"uint64","internalType":"uint64"}],"stateMutability":"view"},{"type":"function","name":"s_endTime","inputs":[],"outputs":[{"name":"","type":"uint256","internalType":"uint256"}],"stateMutability":"view"},{"type":"function","name":"s_owner","inputs":[],"outputs":[{"name":"","type":"address","internalType":"address"}],"stateMutability":"view"},{"type":"function","name":"s_rewardLimit","inputs":[],"outputs":[{"name":"","type":"uint64","internalType":"uint64"}],"stateMutability":"view"},{"type":"function","name":"s_rewardedReferrals","inputs":[{"name":"","type":"address","internalType":"address"}],"outputs":[{"name":"","type":"bool","internalType":"bool"}],"stateMutability":"view"},{"type":"function","name":"s_startTime","inputs":[],"outputs":[{"name":"","type":"uint256","internalType":"uint256"}],"stateMutability":"view"},{"type":"function","name":"s_unitAmount","inputs":[],"outputs":[{"name":"","type":"uint256","internalType":"uint256"}],"stateMutability":"view"},{"type":"function","name":"sendReward","inputs":[{"name":"recipient","type":"address","internalType":"address payable"}],"outputs":[],"stateMutability":"payable"},{"type":"event","name":"SendRewardSuccess","inputs":[{"name":"from","type":"address","indexed":true,"internalType":"address"},{"name":"to","type":"address","indexed":true,"internalType":"address"},{"name":"amount","type":"uint256","indexed":false,"internalType":"uint256"}],"anonymous":false},{"type":"error","name":"BalanceIsNotEnough","inputs":[]},{"type":"error","name":"IsNotOwner","inputs":[]},{"type":"error","name":"TransferFailed","inputs":[{"name":"from","type":"address","internalType":"address"},{"name":"to","type":"address","internalType":"address"},{"name":"amount","type":"uint256","internalType":"uint256"}]},{"type":"error","name":"WalletHasReceivedReward","inputs":[]}],"bytecode":{"object":"0x60806040526040516104f83803806104f88339810160408190526020916064565b600080546001600160a01b03191632179055600280546001600160401b039095166001600160401b03199095169490941790935560039190915560045560055560ad565b60008060008060808587031215607957600080fd5b84516001600160401b0381168114608f57600080fd5b60208601516040870151606090970151919890975090945092505050565b61043c806100bc6000396000f3fe60806040526004361061007b5760003560e01c8063ddcfe49e1161004e578063ddcfe49e14610125578063e39782401461013b578063e54a51a614610173578063f80820c91461018957600080fd5b806323cbcef21461008057806346847316146100cb578063996501e3146100ef5780639dabff2514610110575b600080fd5b34801561008c57600080fd5b506002546100ad9068010000000000000000900467ffffffffffffffff1681565b60405167ffffffffffffffff90911681526020015b60405180910390f35b3480156100d757600080fd5b506100e160055481565b6040519081526020016100c2565b3480156100fb57600080fd5b506002546100ad9067ffffffffffffffff1681565b61012361011e3660046103ae565b6101c9565b005b34801561013157600080fd5b506100e160035481565b34801561014757600080fd5b5060005461015b906001600160a01b031681565b6040516001600160a01b0390911681526020016100c2565b34801561017f57600080fd5b506100e160045481565b34801561019557600080fd5b506101b96101a43660046103ae565b60016020526000908152604090205460ff1681565b60405190151581526020016100c2565b6000546001600160a01b031633146101f4576040516365b023fd60e01b815260040160405180910390fd5b6003544710156102175760405163c6cf63c160e01b815260040160405180910390fd5b6001600160a01b03811660009081526001602052604090205460ff161561025157604051630affae9960e21b815260040160405180910390fd5b6003546040516000916001600160a01b038416918381818185875af1925050503d806000811461029d576040519150601f19603f3d011682016040523d82523d6000602084013e6102a2565b606091505b50509050806102e4576003546040516317e3057d60e31b81523060048201526001600160a01b0384166024820152604481019190915260640160405180910390fd5b6001600260088282829054906101000a900467ffffffffffffffff1661030a91906103d2565b825467ffffffffffffffff9182166101009390930a9283029190920219909116179055506001600160a01b038216600081815260016020819052604091829020805460ff19169091179055600354905130917ff74bcc3793317c525d5358dfc6271a625b4f60b5177c219b44252f5bd53be5a69161038a91815260200190565b60405180910390a35050565b6001600160a01b03811681146103ab57600080fd5b50565b6000602082840312156103c057600080fd5b81356103cb81610396565b9392505050565b67ffffffffffffffff818116838216019081111561040057634e487b7160e01b600052601160045260246000fd5b9291505056fea26469706673582212208cc5e141141caa70626aaa678af3722fb4a09931a2e37060cd8a148fa2f5d56a64736f6c634300081a0033","linkReferences":{}},"methodIdentifiers":{"s_currentRewardCount()":"23cbcef2","s_endTime()":"46847316","s_owner()":"e3978240","s_rewardLimit()":"996501e3","s_rewardedReferrals(address)":"f80820c9","s_startTime()":"e54a51a6","s_unitAmount()":"ddcfe49e","sendReward(address)":"9dabff25"},"id":20}