{"abi":[{"type":"constructor","inputs":[{"name":"_rewardLimit","type":"uint64","internalType":"uint64"},{"name":"_uintAmount","type":"uint256","internalType":"uint256"},{"name":"_startTime","type":"uint256","internalType":"uint256"},{"name":"_endTime","type":"uint256","internalType":"uint256"}],"stateMutability":"payable"},{"type":"fallback","stateMutability":"payable"},{"type":"receive","stateMutability":"payable"},{"type":"function","name":"s_currentRewardCount","inputs":[],"outputs":[{"name":"","type":"uint64","internalType":"uint64"}],"stateMutability":"view"},{"type":"function","name":"s_endTime","inputs":[],"outputs":[{"name":"","type":"uint256","internalType":"uint256"}],"stateMutability":"view"},{"type":"function","name":"s_owner","inputs":[],"outputs":[{"name":"","type":"address","internalType":"address"}],"stateMutability":"view"},{"type":"function","name":"s_rewardLimit","inputs":[],"outputs":[{"name":"","type":"uint64","internalType":"uint64"}],"stateMutability":"view"},{"type":"function","name":"s_rewardedReferrals","inputs":[{"name":"","type":"address","internalType":"address"}],"outputs":[{"name":"","type":"bool","internalType":"bool"}],"stateMutability":"view"},{"type":"function","name":"s_startTime","inputs":[],"outputs":[{"name":"","type":"uint256","internalType":"uint256"}],"stateMutability":"view"},{"type":"function","name":"s_unitAmount","inputs":[],"outputs":[{"name":"","type":"uint256","internalType":"uint256"}],"stateMutability":"view"},{"type":"function","name":"sendReward","inputs":[{"name":"recipient","type":"address","internalType":"address payable"}],"outputs":[],"stateMutability":"payable"},{"type":"function","name":"withdraw","inputs":[],"outputs":[],"stateMutability":"payable"},{"type":"event","name":"SendRewardSuccess","inputs":[{"name":"from","type":"address","indexed":true,"internalType":"address"},{"name":"to","type":"address","indexed":true,"internalType":"address"},{"name":"amount","type":"uint256","indexed":false,"internalType":"uint256"}],"anonymous":false},{"type":"event","name":"WithdrawSuccess","inputs":[{"name":"from","type":"address","indexed":true,"internalType":"address"},{"name":"to","type":"address","indexed":true,"internalType":"address"},{"name":"amount","type":"uint256","indexed":false,"internalType":"uint256"}],"anonymous":false},{"type":"error","name":"BalanceIsNotEnough","inputs":[]},{"type":"error","name":"CampaginIsEnd","inputs":[{"name":"currentTime","type":"uint256","internalType":"uint256"},{"name":"endTime","type":"uint256","internalType":"uint256"}]},{"type":"error","name":"CampaginIsNotEnd","inputs":[{"name":"currentTime","type":"uint256","internalType":"uint256"},{"name":"endTime","type":"uint256","internalType":"uint256"}]},{"type":"error","name":"CampaginIsNotStarted","inputs":[{"name":"currentTime","type":"uint256","internalType":"uint256"},{"name":"startTime","type":"uint256","internalType":"uint256"}]},{"type":"error","name":"IsNotOwner","inputs":[{"name":"owner","type":"address","internalType":"address"},{"name":"sender","type":"address","internalType":"address"}]},{"type":"error","name":"TransferFailed","inputs":[{"name":"from","type":"address","internalType":"address"},{"name":"to","type":"address","internalType":"address"},{"name":"amount","type":"uint256","internalType":"uint256"}]},{"type":"error","name":"WalletHasReceivedReward","inputs":[]},{"type":"error","name":"WithdrawFail","inputs":[]}],"bytecode":{"object":"0x60806040526040516106723803806106728339810160408190526020916064565b600080546001600160a01b03191632179055600280546001600160401b039095166001600160401b03199095169490941790935560039190915560045560055560ad565b60008060008060808587031215607957600080fd5b84516001600160401b0381168114608f57600080fd5b60208601516040870151606090970151919890975090945092505050565b6105b6806100bc6000396000f3fe6080604052600436106100845760003560e01c80639dabff25116100565780639dabff2514610125578063ddcfe49e14610138578063e39782401461014e578063e54a51a614610186578063f80820c91461019c57005b806323cbcef21461008d5780633ccfd60b146100d857806346847316146100e0578063996501e31461010457005b3661008b57005b005b34801561009957600080fd5b506002546100ba9068010000000000000000900467ffffffffffffffff1681565b60405167ffffffffffffffff90911681526020015b60405180910390f35b61008b6101dc565b3480156100ec57600080fd5b506100f660055481565b6040519081526020016100cf565b34801561011057600080fd5b506002546100ba9067ffffffffffffffff1681565b61008b610133366004610528565b6102de565b34801561014457600080fd5b506100f660035481565b34801561015a57600080fd5b5060005461016e906001600160a01b031681565b6040516001600160a01b0390911681526020016100cf565b34801561019257600080fd5b506100f660045481565b3480156101a857600080fd5b506101cc6101b7366004610528565b60016020526000908152604090205460ff1681565b60405190151581526020016100cf565b6000546001600160a01b03163314610221576000546040516303d8c10160e21b81526001600160a01b0390911660048201523360248201526044015b60405180910390fd5b600080546040514792916001600160a01b03169083908381818185875af1925050503d806000811461026f576040519150601f19603f3d011682016040523d82523d6000602084013e610274565b606091505b50509050806102955760405162c0f29960e01b815260040160405180910390fd5b6000546040518381526001600160a01b039091169030907f13f6fde85ff279c84605d36a9e826fa288b03b0fe2c8df3be542eb045ace0483906020015b60405180910390a35050565b6000546001600160a01b0316331461031e576000546040516303d8c10160e21b81526001600160a01b039091166004820152336024820152604401610218565b6003544710156103415760405163c6cf63c160e01b815260040160405180910390fd5b60045442101561037157600480546040516301d39c8f60e51b815242928101929092526024820152604401610218565b6005544211156103a1576005546040516384c3ebb760e01b81524260048201526024810191909152604401610218565b6001600160a01b03811660009081526001602052604090205460ff16156103db57604051630affae9960e21b815260040160405180910390fd5b6003546040516000916001600160a01b038416918381818185875af1925050503d8060008114610427576040519150601f19603f3d011682016040523d82523d6000602084013e61042c565b606091505b505090508061046a576003546040516317e3057d60e31b81523060048201526001600160a01b03841660248201526044810191909152606401610218565b6001600260088282829054906101000a900467ffffffffffffffff16610490919061054c565b825467ffffffffffffffff9182166101009390930a9283029190920219909116179055506001600160a01b038216600081815260016020819052604091829020805460ff19169091179055600354905130917ff74bcc3793317c525d5358dfc6271a625b4f60b5177c219b44252f5bd53be5a6916102d291815260200190565b6001600160a01b038116811461052557600080fd5b50565b60006020828403121561053a57600080fd5b813561054581610510565b9392505050565b67ffffffffffffffff818116838216019081111561057a57634e487b7160e01b600052601160045260246000fd5b9291505056fea2646970667358221220c5df6eaae98a4e308b8c7b95ad068ce6399148e59c3555eb3c70e92024f217fd64736f6c634300081a0033","linkReferences":{}},"methodIdentifiers":{"s_currentRewardCount()":"23cbcef2","s_endTime()":"46847316","s_owner()":"e3978240","s_rewardLimit()":"996501e3","s_rewardedReferrals(address)":"f80820c9","s_startTime()":"e54a51a6","s_unitAmount()":"ddcfe49e","sendReward(address)":"9dabff25","withdraw()":"3ccfd60b"},"id":20}